{
  "transactions": [
    {
      "hash": "0x15dc5655d1eeacccf7455234e8501eec56f800d1775363c0d15c3bdef50e3293",
      "transactionType": "CALL",
      "contractName": null,
      "contractAddress": "0xc535b31f8eafa9a36ca635a8037dcc6fa233c00e",
      "function": "setProfile(string)",
      "arguments": [
        "ipfs://bafkreigef4me65xqglhiyv6rzd5zt3buvxkyggazptqppsndwf4pdnpe2y"
      ],
      "transaction": {
        "from": "0x32fe11d9900d63350016374be98ff37c3af75847",
        "to": "0xc535b31f8eafa9a36ca635a8037dcc6fa233c00e",
        "gas": "0x3d2f6",
        "value": "0x0",
        "input": "0x235b37b100000000000000000000000000000000000000000000000000000000000000200000000000000000000000000000000000000000000000000000000000000042697066733a2f2f6261666b726569676566346d6536357871676c6869797636727a64357a7433627576786b796767617a7074717070736e6477663470646e70653279000000000000000000000000000000000000000000000000000000000000",
        "nonce": "0x102",
        "chainId": "0x1205"
      },
      "additionalContracts": [],
      "isFixedGasLimit": false
    },
    {
      "hash": "0x9964a26bd7817a3ebb06ee52829393067852a30d66c0d6adfd0b9eeacf5f23a5",
      "transactionType": "CALL",
      "contractName": null,
      "contractAddress": "0xe3955bf888a38087fefa0b0fa3539212d9cf9807",
      "function": "createJob(uint256,string)",
      "arguments": [
        "1770037830",
        "ipfs://bafkreiapvcj35kozozrglwiz2n3b2pqwsal4hyndmszl2e7s3kkjmidmye"
      ],
      "transaction": {
        "from": "0x32fe11d9900d63350016374be98ff37c3af75847",
        "to": "0xe3955bf888a38087fefa0b0fa3539212d9cf9807",
        "gas": "0x6847d",
        "value": "0x2386f26fc10000",
        "input": "0xad0b9168000000000000000000000000000000000000000000000000000000006980a24600000000000000000000000000000000000000000000000000000000000000400000000000000000000000000000000000000000000000000000000000000042697066733a2f2f6261666b726569617076636a33356b6f7a6f7a72676c77697a326e33623270717773616c3468796e646d737a6c32653773336b6b6a6d69646d7965000000000000000000000000000000000000000000000000000000000000",
        "nonce": "0x103",
        "chainId": "0x1205"
      },
      "additionalContracts": [],
      "isFixedGasLimit": false
    },
    {
      "hash": "0x38ccbb5e6a7d4b86242caef33006acfbcc9393ca25688c6fd45d041bde7a5e87",
      "transactionType": "CALL",
      "contractName": null,
      "contractAddress": "0xe3955bf888a38087fefa0b0fa3539212d9cf9807",
      "function": "createJob(uint256,string)",
      "arguments": [
        "1770037830",
        "ipfs://bafkreiapvcj35kozozrglwiz2n3b2pqwsal4hyndmszl2e7s3kkjmidmye"
      ],
      "transaction": {
        "from": "0x32fe11d9900d63350016374be98ff37c3af75847",
        "to": "0xe3955bf888a38087fefa0b0fa3539212d9cf9807",
        "gas": "0x5e9be",
        "value": "0x2386f26fc10000",
        "input": "0xad0b9168000000000000000000000000000000000000000000000000000000006980a24600000000000000000000000000000000000000000000000000000000000000400000000000000000000000000000000000000000000000000000000000000042697066733a2f2f6261666b726569617076636a33356b6f7a6f7a72676c77697a326e33623270717773616c3468796e646d737a6c32653773336b6b6a6d69646d7965000000000000000000000000000000000000000000000000000000000000",
        "nonce": "0x104",
        "chainId": "0x1205"
      },
      "additionalContracts": [],
      "isFixedGasLimit": false
    },
    {
      "hash": "0xc18e5eeb3deaee526949629bc4e0f15a44db8090fae1f8208169744cbc16edee",
      "transactionType": "CALL",
      "contractName": null,
      "contractAddress": "0xe3955bf888a38087fefa0b0fa3539212d9cf9807",
      "function": "createJob(uint256,string)",
      "arguments": [
        "1770037830",
        "ipfs://bafkreiapvcj35kozozrglwiz2n3b2pqwsal4hyndmszl2e7s3kkjmidmye"
      ],
      "transaction": {
        "from": "0x32fe11d9900d63350016374be98ff37c3af75847",
        "to": "0xe3955bf888a38087fefa0b0fa3539212d9cf9807",
        "gas": "0x5e9be",
        "value": "0x2386f26fc10000",
        "input": "0xad0b9168000000000000000000000000000000000000000000000000000000006980a24600000000000000000000000000000000000000000000000000000000000000400000000000000000000000000000000000000000000000000000000000000042697066733a2f2f6261666b726569617076636a33356b6f7a6f7a72676c77697a326e33623270717773616c3468796e646d737a6c32653773336b6b6a6d69646d7965000000000000000000000000000000000000000000000000000000000000",
        "nonce": "0x105",
        "chainId": "0x1205"
      },
      "additionalContracts": [],
      "isFixedGasLimit": false
    },
    {
      "hash": "0xe662f77123f1533ca899f34e9d4c806b9e46ab8ec7dbb2cb62d550fad9fd283a",
      "transactionType": "CALL",
      "contractName": null,
      "contractAddress": "0xe3955bf888a38087fefa0b0fa3539212d9cf9807",
      "function": "cancelJob(uint256)",
      "arguments": [
        "2"
      ],
      "transaction": {
        "from": "0x32fe11d9900d63350016374be98ff37c3af75847",
        "to": "0xe3955bf888a38087fefa0b0fa3539212d9cf9807",
        "gas": "0x1c3f6",
        "value": "0x0",
        "input": "0x1dffa3dc0000000000000000000000000000000000000000000000000000000000000002",
        "nonce": "0x106",
        "chainId": "0x1205"
      },
      "additionalContracts": [],
      "isFixedGasLimit": false
    }
  ],
  "receipts": [
    {
      "status": "0x1",
      "cumulativeGasUsed": "0x2c4c0",
      "logs": [
        {
          "address": "0xc535b31f8eafa9a36ca635a8037dcc6fa233c00e",
          "topics": [
            "0x25dbccf9f713a2b16ed5d635585b4778d0d7e66b7b631871e668a694131e5fad",
            "0x00000000000000000000000032fe11d9900d63350016374be98ff37c3af75847"
          ],
          "data": "0x0000000000000000000000000000000000000000000000000000000000000040000000000000000000000000000000000000000000000000000000006959155e0000000000000000000000000000000000000000000000000000000000000042697066733a2f2f6261666b726569676566346d6536357871676c6869797636727a64357a7433627576786b796767617a7074717070736e6477663470646e70653279000000000000000000000000000000000000000000000000000000000000",
          "blockHash": "0x21737545514b2cc42d69a6e5affac66093810caf011ad3d6bb7d80cc12418ac7",
          "blockNumber": "0x3f5fe2",
          "transactionHash": "0x15dc5655d1eeacccf7455234e8501eec56f800d1775363c0d15c3bdef50e3293",
          "transactionIndex": "0x0",
          "logIndex": "0x0",
          "removed": false
        }
      ],
      "logsBloom": "0x00000000000000000000000000000000000000000000000000000000000000000000000000000000000000000000000000000000000000000000000000000000000000800000000000000000000000000000000000000000000000000000001000001000000000000000000000000100000000000080000000000000000000000000000000000000000000000000000000000000000000000010000000000000000000000000000000000200000000000000000000000000000002000000000000000000000000000000000000000000000000000000000200000000000000000000000000000000000000000000000000000000000000000000000000000000",
      "type": "0x2",
      "transactionHash": "0x15dc5655d1eeacccf7455234e8501eec56f800d1775363c0d15c3bdef50e3293",
      "transactionIndex": "0x0",
      "blockHash": "0x21737545514b2cc42d69a6e5affac66093810caf011ad3d6bb7d80cc12418ac7",
      "blockNumber": "0x3f5fe2",
      "gasUsed": "0x2c4c0",
      "effectiveGasPrice": "0x3b9aca07",
      "from": "0x32fe11d9900d63350016374be98ff37c3af75847",
      "to": "0xc535b31f8eafa9a36ca635a8037dcc6fa233c00e",
      "contractAddress": null
    },
    {
      "status": "0x1",
      "cumulativeGasUsed": "0x73999",
      "logs": [
        {
          "address": "0xe3955bf888a38087fefa0b0fa3539212d9cf9807",
          "topics": [
            "0xa2a5b1a0547724f73a195d5b3a697af47e5e8d5b97c31abd385d2e170e9a5b48",
            "0x0000000000000000000000000000000000000000000000000000000000000000",
            "0x00000000000000000000000032fe11d9900d63350016374be98ff37c3af75847"
          ],
          "data": "0x000000000000000000000000000000000000000000000000002386f26fc10000000000000000000000000000000000000000000000000000000000006980a24600000000000000000000000000000000000000000000000000000000000000600000000000000000000000000000000000000000000000000000000000000042697066733a2f2f6261666b726569617076636a33356b6f7a6f7a72676c77697a326e33623270717773616c3468796e646d737a6c32653773336b6b6a6d69646d7965000000000000000000000000000000000000000000000000000000000000",
          "blockHash": "0x21737545514b2cc42d69a6e5affac66093810caf011ad3d6bb7d80cc12418ac7",
          "blockNumber": "0x3f5fe2",
          "transactionHash": "0x9964a26bd7817a3ebb06ee52829393067852a30d66c0d6adfd0b9eeacf5f23a5",
          "transactionIndex": "0x1",
          "logIndex": "0x1",
          "removed": false
        }
      ],
      "logsBloom": "0x00000000000000400000000000000000000000000000000000000000100000000000000000000000040000000000000000000000000000000000400000000000000000000008000000000000000000000000000000000000000000000000000000001000020000000000000000000d00000000000080000000000000000000000000000000000000000000000000000000000000000000000000000000000000000000000000000000000000000000000000000000000000000000000000000000000000000000000000000000000000000000000000000000000000000020000000000000000000000000000000000000000000000000000000000000000000",
      "type": "0x2",
      "transactionHash": "0x9964a26bd7817a3ebb06ee52829393067852a30d66c0d6adfd0b9eeacf5f23a5",
      "transactionIndex": "0x1",
      "blockHash": "0x21737545514b2cc42d69a6e5affac66093810caf011ad3d6bb7d80cc12418ac7",
      "blockNumber": "0x3f5fe2",
      "gasUsed": "0x474d9",
      "effectiveGasPrice": "0x3b9aca07",
      "from": "0x32fe11d9900d63350016374be98ff37c3af75847",
      "to": "0xe3955bf888a38087fefa0b0fa3539212d9cf9807",
      "contractAddress": null
    },
    {
      "status": "0x1",
      "cumulativeGasUsed": "0xb8186",
      "logs": [
        {
          "address": "0xe3955bf888a38087fefa0b0fa3539212d9cf9807",
          "topics": [
            "0xa2a5b1a0547724f73a195d5b3a697af47e5e8d5b97c31abd385d2e170e9a5b48",
            "0x0000000000000000000000000000000000000000000000000000000000000001",
            "0x00000000000000000000000032fe11d9900d63350016374be98ff37c3af75847"
          ],
          "data": "0x000000000000000000000000000000000000000000000000002386f26fc10000000000000000000000000000000000000000000000000000000000006980a24600000000000000000000000000000000000000000000000000000000000000600000000000000000000000000000000000000000000000000000000000000042697066733a2f2f6261666b726569617076636a33356b6f7a6f7a72676c77697a326e33623270717773616c3468796e646d737a6c32653773336b6b6a6d69646d7965000000000000000000000000000000000000000000000000000000000000",
          "blockHash": "0x21737545514b2cc42d69a6e5affac66093810caf011ad3d6bb7d80cc12418ac7",
          "blockNumber": "0x3f5fe2",
          "transactionHash": "0x38ccbb5e6a7d4b86242caef33006acfbcc9393ca25688c6fd45d041bde7a5e87",
          "transactionIndex": "0x2",
          "logIndex": "0x2",
          "removed": false
        }
      ],
      "logsBloom": "0x00000000000000400000000000000000000000000000000000000000100000000000000000000000040000000000000000000000000000000000400000040000000000000008000000000000000000000000000000040000000000000000000000001000000000000000000000000500000000000080000000000000000000000000000000000000000000000000000000000000000000000000000000000000000000000000000000000000000000000000000000000000000000000000000000000000000000000000000000000000000000000000000000000000000040000000000000000000000000000000000000000000000000000000000000000000",
      "type": "0x2",
      "transactionHash": "0x38ccbb5e6a7d4b86242caef33006acfbcc9393ca25688c6fd45d041bde7a5e87",
      "transactionIndex": "0x2",
      "blockHash": "0x21737545514b2cc42d69a6e5affac66093810caf011ad3d6bb7d80cc12418ac7",
      "blockNumber": "0x3f5fe2",
      "gasUsed": "0x447ed",
      "effectiveGasPrice": "0x3b9aca07",
      "from": "0x32fe11d9900d63350016374be98ff37c3af75847",
      "to": "0xe3955bf888a38087fefa0b0fa3539212d9cf9807",
      "contractAddress": null
    },
    {
      "status": "0x1",
      "cumulativeGasUsed": "0xfc973",
      "logs": [
        {
          "address": "0xe3955bf888a38087fefa0b0fa3539212d9cf9807",
          "topics": [
            "0xa2a5b1a0547724f73a195d5b3a697af47e5e8d5b97c31abd385d2e170e9a5b48",
            "0x0000000000000000000000000000000000000000000000000000000000000002",
            "0x00000000000000000000000032fe11d9900d63350016374be98ff37c3af75847"
          ],
          "data": "0x000000000000000000000000000000000000000000000000002386f26fc10000000000000000000000000000000000000000000000000000000000006980a24600000000000000000000000000000000000000000000000000000000000000600000000000000000000000000000000000000000000000000000000000000042697066733a2f2f6261666b726569617076636a33356b6f7a6f7a72676c77697a326e33623270717773616c3468796e646d737a6c32653773336b6b6a6d69646d7965000000000000000000000000000000000000000000000000000000000000",
          "blockHash": "0x21737545514b2cc42d69a6e5affac66093810caf011ad3d6bb7d80cc12418ac7",
          "blockNumber": "0x3f5fe2",
          "transactionHash": "0xc18e5eeb3deaee526949629bc4e0f15a44db8090fae1f8208169744cbc16edee",
          "transactionIndex": "0x3",
          "logIndex": "0x3",
          "removed": false
        }
      ],
      "logsBloom": "0x04000000000000400000000000000000000000000000000000000000100000000000000000000000040000000000000000000000000000000000400000000000000000000008000000000000000000000000000000000000000000000000000000001000000000000000000000000500000000000080000000000000000000000000000000000000000000000000000000000000000000000000000000000000000000000000000000000100000000000000000000000000000000000000000000000000000000000000000000000000000000000000000000000000000000000000000000000000000000000000000000000000008000000000000000000000",
      "type": "0x2",
      "transactionHash": "0xc18e5eeb3deaee526949629bc4e0f15a44db8090fae1f8208169744cbc16edee",
      "transactionIndex": "0x3",
      "blockHash": "0x21737545514b2cc42d69a6e5affac66093810caf011ad3d6bb7d80cc12418ac7",
      "blockNumber": "0x3f5fe2",
      "gasUsed": "0x447ed",
      "effectiveGasPrice": "0x3b9aca07",
      "from": "0x32fe11d9900d63350016374be98ff37c3af75847",
      "to": "0xe3955bf888a38087fefa0b0fa3539212d9cf9807",
      "contractAddress": null
    },
    {
      "status": "0x1",
      "cumulativeGasUsed": "0x1110aa",
      "logs": [
        {
          "address": "0xe3955bf888a38087fefa0b0fa3539212d9cf9807",
          "topics": [
            "0xa80c76c474b34cc7af71dec63d733b959fff08f4eb0789e288be5db6b608f942",
            "0x0000000000000000000000000000000000000000000000000000000000000002",
            "0x00000000000000000000000032fe11d9900d63350016374be98ff37c3af75847"
          ],
          "data": "0x000000000000000000000000000000000000000000000000000000006959155e",
          "blockHash": "0x21737545514b2cc42d69a6e5affac66093810caf011ad3d6bb7d80cc12418ac7",
          "blockNumber": "0x3f5fe2",
          "transactionHash": "0xe662f77123f1533ca899f34e9d4c806b9e46ab8ec7dbb2cb62d550fad9fd283a",
          "transactionIndex": "0x4",
          "logIndex": "0x4",
          "removed": false
        }
      ],
      "logsBloom": "0x04000000000000000000000000000000000000000000000000000000000000400000000000000000040000000000000000000000000000000000000000000000002000000008000000000000000000000000000000000000000000000000000000001000000020000000000000000500000000000080000000000000000000000000000000000000000000000000000000000000000000000000000000000000000000000000000000000100000000000000000000000000000000000000000000000000000000000000000000000000000000000000000000000000000000000000000000000000000000000000000000000000008000000000000000000000",
      "type": "0x2",
      "transactionHash": "0xe662f77123f1533ca899f34e9d4c806b9e46ab8ec7dbb2cb62d550fad9fd283a",
      "transactionIndex": "0x4",
      "blockHash": "0x21737545514b2cc42d69a6e5affac66093810caf011ad3d6bb7d80cc12418ac7",
      "blockNumber": "0x3f5fe2",
      "gasUsed": "0x14737",
      "effectiveGasPrice": "0x3b9aca07",
      "from": "0x32fe11d9900d63350016374be98ff37c3af75847",
      "to": "0xe3955bf888a38087fefa0b0fa3539212d9cf9807",
      "contractAddress": null
    }
  ],
  "libraries": [],
  "pending": [],
  "returns": {},
  "timestamp": 1767445855,
  "chain": 4613,
  "commit": "a7973fa"
}